:1000000000308A0018280000223084008313000882
:10001000031917280630F800F701F70B0D28F80B25
:100020000C287B30F700F70B1328800B0A280800F8
:1000300083161F149F141F159F1107309C008313F4
:100040001F3083050610831206140230A100FA3017
:10005000A2000420A10B2728831606108312061085
:100060000330A100C830A2000420A10B322883165F
:100070008610831286140230A100FA30A2000420F8
:10008000A10B3D2883168610831286100530A1002F
:100090008230A2000420A10B482883160611831287
:1000A00006150230A100FA30A2000420A10B53284B
:1000B00083160611831206110530A1008230A200BA
:0C00C0000420A10B5E2883162228630098
:02400E00323F3F
:00000001FF
;PIC16F877A
;CRC=FFCB  CREATED="16-Kas-23 13:50"
